{
  "_format": "hh-sol-artifact-1",
  "contractName": "Token",
  "sourceName": "contracts/Token.sol",
  "abi": [
    {
      "inputs": [
        {
          "internalType": "string",
          "name": "name",
          "type": "string"
        },
        {
          "internalType": "string",
          "name": "symbol",
          "type": "string"
        },
        {
          "internalType": "uint256",
          "name": "amount",
          "type": "uint256"
        }
      ],
      "stateMutability": "nonpayable",
      "type": "constructor"
    },
    {
      "inputs": [
        {
          "internalType": "address",
          "name": "spender",
          "type": "address"
        },
        {
          "internalType": "uint256",
          "name": "allowance",
          "type": "uint256"
        },
        {
          "internalType": "uint256",
          "name": "needed",
          "type": "uint256"
        }
      ],
      "name": "ERC20InsufficientAllowance",
      "type": "error"
    },
    {
      "inputs": [
        {
          "internalType": "address",
          "name": "sender",
          "type": "address"
        },
        {
          "internalType": "uint256",
          "name": "balance",
          "type": "uint256"
        },
        {
          "internalType": "uint256",
          "name": "needed",
          "type": "uint256"
        }
      ],
      "name": "ERC20InsufficientBalance",
      "type": "error"
    },
    {
      "inputs": [
        {
          "internalType": "address",
          "name": "approver",
          "type": "address"
        }
      ],
      "name": "ERC20InvalidApprover",
      "type": "error"
    },
    {
      "inputs": [
        {
          "internalType": "address",
          "name": "receiver",
          "type": "address"
        }
      ],
      "name": "ERC20InvalidReceiver",
      "type": "error"
    },
    {
      "inputs": [
        {
          "internalType": "address",
          "name": "sender",
          "type": "address"
        }
      ],
      "name": "ERC20InvalidSender",
      "type": "error"
    },
    {
      "inputs": [
        {
          "internalType": "address",
          "name": "spender",
          "type": "address"
        }
      ],
      "name": "ERC20InvalidSpender",
      "type": "error"
    },
    {
      "inputs": [
        {
          "internalType": "address",
          "name": "owner",
          "type": "address"
        }
      ],
      "name": "OwnableInvalidOwner",
      "type": "error"
    },
    {
      "inputs": [
        {
          "internalType": "address",
          "name": "account",
          "type": "address"
        }
      ],
      "name": "OwnableUnauthorizedAccount",
      "type": "error"
    },
    {
      "anonymous": false,
      "inputs": [
        {
          "indexed": true,
          "internalType": "address",
          "name": "owner",
          "type": "address"
        },
        {
          "indexed": true,
          "internalType": "address",
          "name": "spender",
          "type": "address"
        },
        {
          "indexed": false,
          "internalType": "uint256",
          "name": "value",
          "type": "uint256"
        }
      ],
      "name": "Approval",
      "type": "event"
    },
    {
      "anonymous": false,
      "inputs": [
        {
          "indexed": false,
          "internalType": "address",
          "name": "_owner",
          "type": "address"
        },
        {
          "indexed": false,
          "internalType": "address",
          "name": "_spender",
          "type": "address"
        },
        {
          "indexed": false,
          "internalType": "uint256",
          "name": "_amount",
          "type": "uint256"
        }
      ],
      "name": "ApproveEvent",
      "type": "event"
    },
    {
      "anonymous": false,
      "inputs": [
        {
          "indexed": true,
          "internalType": "address",
          "name": "previousOwner",
          "type": "address"
        },
        {
          "indexed": true,
          "internalType": "address",
          "name": "newOwner",
          "type": "address"
        }
      ],
      "name": "OwnershipTransferred",
      "type": "event"
    },
    {
      "anonymous": false,
      "inputs": [
        {
          "indexed": false,
          "internalType": "address",
          "name": "from",
          "type": "address"
        },
        {
          "indexed": false,
          "internalType": "address",
          "name": "to",
          "type": "address"
        },
        {
          "indexed": false,
          "internalType": "uint256",
          "name": "amount",
          "type": "uint256"
        }
      ],
      "name": "TokenTransferEvent",
      "type": "event"
    },
    {
      "anonymous": false,
      "inputs": [
        {
          "indexed": true,
          "internalType": "address",
          "name": "from",
          "type": "address"
        },
        {
          "indexed": true,
          "internalType": "address",
          "name": "to",
          "type": "address"
        },
        {
          "indexed": false,
          "internalType": "uint256",
          "name": "value",
          "type": "uint256"
        }
      ],
      "name": "Transfer",
      "type": "event"
    },
    {
      "anonymous": false,
      "inputs": [
        {
          "indexed": false,
          "internalType": "address",
          "name": "to",
          "type": "address"
        },
        {
          "indexed": false,
          "internalType": "uint256",
          "name": "amount",
          "type": "uint256"
        }
      ],
      "name": "mintEvent",
      "type": "event"
    },
    {
      "inputs": [
        {
          "internalType": "address",
          "name": "_owner",
          "type": "address"
        },
        {
          "internalType": "address",
          "name": "_spender",
          "type": "address"
        },
        {
          "internalType": "uint256",
          "name": "_amount",
          "type": "uint256"
        }
      ],
      "name": "Approve",
      "outputs": [
        {
          "internalType": "bool",
          "name": "",
          "type": "bool"
        }
      ],
      "stateMutability": "nonpayable",
      "type": "function"
    },
    {
      "inputs": [
        {
          "internalType": "address",
          "name": "to",
          "type": "address"
        },
        {
          "internalType": "uint256",
          "name": "amount",
          "type": "uint256"
        }
      ],
      "name": "TokenTransfer",
      "outputs": [
        {
          "internalType": "bool",
          "name": "",
          "type": "bool"
        }
      ],
      "stateMutability": "nonpayable",
      "type": "function"
    },
    {
      "inputs": [
        {
          "internalType": "address",
          "name": "from",
          "type": "address"
        },
        {
          "internalType": "address",
          "name": "to",
          "type": "address"
        },
        {
          "internalType": "uint256",
          "name": "amount",
          "type": "uint256"
        }
      ],
      "name": "TokenTransferFrom",
      "outputs": [
        {
          "internalType": "bool",
          "name": "",
          "type": "bool"
        }
      ],
      "stateMutability": "nonpayable",
      "type": "function"
    },
    {
      "inputs": [
        {
          "internalType": "address",
          "name": "owner",
          "type": "address"
        },
        {
          "internalType": "address",
          "name": "spender",
          "type": "address"
        }
      ],
      "name": "allowance",
      "outputs": [
        {
          "internalType": "uint256",
          "name": "",
          "type": "uint256"
        }
      ],
      "stateMutability": "view",
      "type": "function"
    },
    {
      "inputs": [
        {
          "internalType": "address",
          "name": "spender",
          "type": "address"
        },
        {
          "internalType": "uint256",
          "name": "value",
          "type": "uint256"
        }
      ],
      "name": "approve",
      "outputs": [
        {
          "internalType": "bool",
          "name": "",
          "type": "bool"
        }
      ],
      "stateMutability": "nonpayable",
      "type": "function"
    },
    {
      "inputs": [
        {
          "internalType": "address",
          "name": "account",
          "type": "address"
        }
      ],
      "name": "balanceOf",
      "outputs": [
        {
          "internalType": "uint256",
          "name": "",
          "type": "uint256"
        }
      ],
      "stateMutability": "view",
      "type": "function"
    },
    {
      "inputs": [],
      "name": "decimals",
      "outputs": [
        {
          "internalType": "uint8",
          "name": "",
          "type": "uint8"
        }
      ],
      "stateMutability": "view",
      "type": "function"
    },
    {
      "inputs": [
        {
          "internalType": "address",
          "name": "to",
          "type": "address"
        },
        {
          "internalType": "uint256",
          "name": "amount",
          "type": "uint256"
        }
      ],
      "name": "mint",
      "outputs": [
        {
          "internalType": "bool",
          "name": "",
          "type": "bool"
        }
      ],
      "stateMutability": "nonpayable",
      "type": "function"
    },
    {
      "inputs": [],
      "name": "name",
      "outputs": [
        {
          "internalType": "string",
          "name": "",
          "type": "string"
        }
      ],
      "stateMutability": "view",
      "type": "function"
    },
    {
      "inputs": [],
      "name": "owner",
      "outputs": [
        {
          "internalType": "address",
          "name": "",
          "type": "address"
        }
      ],
      "stateMutability": "view",
      "type": "function"
    },
    {
      "inputs": [],
      "name": "renounceOwnership",
      "outputs": [],
      "stateMutability": "nonpayable",
      "type": "function"
    },
    {
      "inputs": [],
      "name": "symbol",
      "outputs": [
        {
          "internalType": "string",
          "name": "",
          "type": "string"
        }
      ],
      "stateMutability": "view",
      "type": "function"
    },
    {
      "inputs": [],
      "name": "totalSupply",
      "outputs": [
        {
          "internalType": "uint256",
          "name": "",
          "type": "uint256"
        }
      ],
      "stateMutability": "view",
      "type": "function"
    },
    {
      "inputs": [
        {
          "internalType": "address",
          "name": "to",
          "type": "address"
        },
        {
          "internalType": "uint256",
          "name": "value",
          "type": "uint256"
        }
      ],
      "name": "transfer",
      "outputs": [
        {
          "internalType": "bool",
          "name": "",
          "type": "bool"
        }
      ],
      "stateMutability": "nonpayable",
      "type": "function"
    },
    {
      "inputs": [
        {
          "internalType": "address",
          "name": "from",
          "type": "address"
        },
        {
          "internalType": "address",
          "name": "to",
          "type": "address"
        },
        {
          "internalType": "uint256",
          "name": "value",
          "type": "uint256"
        }
      ],
      "name": "transferFrom",
      "outputs": [
        {
          "internalType": "bool",
          "name": "",
          "type": "bool"
        }
      ],
      "stateMutability": "nonpayable",
      "type": "function"
    },
    {
      "inputs": [
        {
          "internalType": "address",
          "name": "newOwner",
          "type": "address"
        }
      ],
      "name": "transferOwnership",
      "outputs": [],
      "stateMutability": "nonpayable",
      "type": "function"
    }
  ],
  "bytecode": "0x60806040523480156200001157600080fd5b50604051620021ad380380620021ad8339818101604052810190620000379190620007bb565b33838381600390816200004b919062000a96565b5080600490816200005d919062000a96565b505050600073ffffffffffffffffffffffffffffffffffffffff168173ffffffffffffffffffffffffffffffffffffffff1603620000d55760006040517f1e4fbdf7000000000000000000000000000000000000000000000000000000008152600401620000cc919062000bc2565b60405180910390fd5b620000e6816200010360201b60201c565b50620000f93382620001c960201b60201c565b5050505062000d2c565b6000600560009054906101000a900473ffffffffffffffffffffffffffffffffffffffff16905081600560006101000a81548173ffffffffffffffffffffffffffffffffffffffff021916908373ffffffffffffffffffffffffffffffffffffffff1602179055508173ffffffffffffffffffffffffffffffffffffffff168173ffffffffffffffffffffffffffffffffffffffff167f8be0079c531659141344cd1fd0a4f28419497f9722a3daafe3b4186f6b6457e060405160405180910390a35050565b6000620001db6200025c60201b60201c565b6200020283670de0b6b3a764000084620001f6919062000c0e565b620002fe60201b60201c565b7f45704679a40d4b2ffe28aa7324f021775faaca4d40917fef2cdf38e53fd90a2483670de0b6b3a7640000846200023a919062000c0e565b6040516200024a92919062000c6a565b60405180910390a16001905092915050565b6200026c6200038b60201b60201c565b73ffffffffffffffffffffffffffffffffffffffff16620002926200039360201b60201c565b73ffffffffffffffffffffffffffffffffffffffff1614620002fc57620002be6200038b60201b60201c565b6040517f118cdaa7000000000000000000000000000000000000000000000000000000008152600401620002f3919062000bc2565b60405180910390fd5b565b600073ffffffffffffffffffffffffffffffffffffffff168273ffffffffffffffffffffffffffffffffffffffff1603620003735760006040517fec442f050000000000000000000000000000000000000000000000000000000081526004016200036a919062000bc2565b60405180910390fd5b6200038760008383620003bd60201b60201c565b5050565b600033905090565b6000600560009054906101000a900473ffffffffffffffffffffffffffffffffffffffff16905090565b600073ffffffffffffffffffffffffffffffffffffffff168373ffffffffffffffffffffffffffffffffffffffff16036200041357806002600082825462000406919062000c97565b92505081905550620004e9565b60008060008573ffffffffffffffffffffffffffffffffffffffff1673ffffffffffffffffffffffffffffffffffffffff16815260200190815260200160002054905081811015620004a2578381836040517fe450d38c000000000000000000000000000000000000000000000000000000008152600401620004999392919062000cd2565b60405180910390fd5b8181036000808673ffffffffffffffffffffffffffffffffffffffff1673ffffffffffffffffffffffffffffffffffffffff16815260200190815260200160002081905550505b600073ffffffffffffffffffffffffffffffffffffffff168273ffffffffffffffffffffffffffffffffffffffff160362000534578060026000828254039250508190555062000581565b806000808473ffffffffffffffffffffffffffffffffffffffff1673ffffffffffffffffffffffffffffffffffffffff168152602001908152602001600020600082825401925050819055505b8173ffffffffffffffffffffffffffffffffffffffff168373ffffffffffffffffffffffffffffffffffffffff167fddf252ad1be2c89b69c2b068fc378daa952ba7f163c4a11628f55a4df523b3ef83604051620005e0919062000d0f565b60405180910390a3505050565b6000604051905090565b600080fd5b600080fd5b600080fd5b600080fd5b6000601f19601f8301169050919050565b7f4e487b7100000000000000000000000000000000000000000000000000000000600052604160045260246000fd5b62000656826200060b565b810181811067ffffffffffffffff821117156200067857620006776200061c565b5b80604052505050565b60006200068d620005ed565b90506200069b82826200064b565b919050565b600067ffffffffffffffff821115620006be57620006bd6200061c565b5b620006c9826200060b565b9050602081019050919050565b60005b83811015620006f6578082015181840152602081019050620006d9565b60008484015250505050565b6000620007196200071384620006a0565b62000681565b90508281526020810184848401111562000738576200073762000606565b5b62000745848285620006d6565b509392505050565b600082601f83011262000765576200076462000601565b5b81516200077784826020860162000702565b91505092915050565b6000819050919050565b620007958162000780565b8114620007a157600080fd5b50565b600081519050620007b5816200078a565b92915050565b600080600060608486031215620007d757620007d6620005f7565b5b600084015167ffffffffffffffff811115620007f857620007f7620005fc565b5b62000806868287016200074d565b935050602084015167ffffffffffffffff8111156200082a5762000829620005fc565b5b62000838868287016200074d565b92505060406200084b86828701620007a4565b9150509250925092565b600081519050919050565b7f4e487b7100000000000000000000000000000000000000000000000000000000600052602260045260246000fd5b60006002820490506001821680620008a857607f821691505b602082108103620008be57620008bd62000860565b5b50919050565b60008190508160005260206000209050919050565b60006020601f8301049050919050565b600082821b905092915050565b600060088302620009287fffffffffffffffffffffffffffffffffffffffffffffffffffffffffffffffff82620008e9565b620009348683620008e9565b95508019841693508086168417925050509392505050565b6000819050919050565b600062000977620009716200096b8462000780565b6200094c565b62000780565b9050919050565b6000819050919050565b620009938362000956565b620009ab620009a2826200097e565b848454620008f6565b825550505050565b600090565b620009c2620009b3565b620009cf81848462000988565b505050565b5b81811015620009f757620009eb600082620009b8565b600181019050620009d5565b5050565b601f82111562000a465762000a1081620008c4565b62000a1b84620008d9565b8101602085101562000a2b578190505b62000a4362000a3a85620008d9565b830182620009d4565b50505b505050565b600082821c905092915050565b600062000a6b6000198460080262000a4b565b1980831691505092915050565b600062000a86838362000a58565b9150826002028217905092915050565b62000aa18262000855565b67ffffffffffffffff81111562000abd5762000abc6200061c565b5b62000ac982546200088f565b62000ad6828285620009fb565b600060209050601f83116001811462000b0e576000841562000af9578287015190505b62000b05858262000a78565b86555062000b75565b601f19841662000b1e86620008c4565b60005b8281101562000b485784890151825560018201915060208501945060208101905062000b21565b8683101562000b68578489015162000b64601f89168262000a58565b8355505b6001600288020188555050505b505050505050565b600073ffffffffffffffffffffffffffffffffffffffff82169050919050565b600062000baa8262000b7d565b9050919050565b62000bbc8162000b9d565b82525050565b600060208201905062000bd9600083018462000bb1565b92915050565b7f4e487b7100000000000000000000000000000000000000000000000000000000600052601160045260246000fd5b600062000c1b8262000780565b915062000c288362000780565b925082820262000c388162000780565b9150828204841483151762000c525762000c5162000bdf565b5b5092915050565b62000c648162000780565b82525050565b600060408201905062000c81600083018562000bb1565b62000c90602083018462000c59565b9392505050565b600062000ca48262000780565b915062000cb18362000780565b925082820190508082111562000ccc5762000ccb62000bdf565b5b92915050565b600060608201905062000ce9600083018662000bb1565b62000cf8602083018562000c59565b62000d07604083018462000c59565b949350505050565b600060208201905062000d26600083018462000c59565b92915050565b6114718062000d3c6000396000f3fe608060405234801561001057600080fd5b50600436106101005760003560e01c806370a0823111610097578063a9059cbb11610066578063a9059cbb146102c5578063c143a372146102f5578063dd62ed3e14610325578063f2fde38b1461035557610100565b806370a082311461024f578063715018a61461027f5780638da5cb5b1461028957806395d89b41146102a757610100565b806323b872dd116100d357806323b872dd146101a1578063313ce567146101d157806340c10f19146101ef5780636e11fb1b1461021f57610100565b806306fdde0314610105578063095ea7b31461012357806318160ddd146101535780631d72140a14610171575b600080fd5b61010d610371565b60405161011a9190611023565b60405180910390f35b61013d600480360381019061013891906110de565b610403565b60405161014a9190611139565b60405180910390f35b61015b610426565b6040516101689190611163565b60405180910390f35b61018b600480360381019061018691906110de565b610430565b6040516101989190611139565b60405180910390f35b6101bb60048036038101906101b6919061117e565b610482565b6040516101c89190611139565b60405180910390f35b6101d96104b1565b6040516101e691906111ed565b60405180910390f35b610209600480360381019061020491906110de565b6104ba565b6040516102169190611139565b60405180910390f35b6102396004803603810190610234919061117e565b610537565b6040516102469190611139565b60405180910390f35b61026960048036038101906102649190611208565b61058a565b6040516102769190611163565b60405180910390f35b6102876105d2565b005b6102916105e6565b60405161029e9190611244565b60405180910390f35b6102af610610565b6040516102bc9190611023565b60405180910390f35b6102df60048036038101906102da91906110de565b6106a2565b6040516102ec9190611139565b60405180910390f35b61030f600480360381019061030a919061117e565b6106c5565b60405161031c9190611139565b60405180910390f35b61033f600480360381019061033a919061125f565b610719565b60405161034c9190611163565b60405180910390f35b61036f600480360381019061036a9190611208565b6107a0565b005b606060038054610380906112ce565b80601f01602080910402602001604051908101604052809291908181526020018280546103ac906112ce565b80156103f95780601f106103ce576101008083540402835291602001916103f9565b820191906000526020600020905b8154815290600101906020018083116103dc57829003601f168201915b5050505050905090565b60008061040e610826565b905061041b81858561082e565b600191505092915050565b6000600254905090565b600061043c83836106a2565b507f21141798e799a89effd25c61078f7d75d4bdc3a58aa15da24f720f282983c826338484604051610470939291906112ff565b60405180910390a16001905092915050565b60008061048d610826565b905061049a858285610840565b6104a58585856108d4565b60019150509392505050565b60006012905090565b60006104c46109c8565b6104e183670de0b6b3a7640000846104dc9190611365565b610a4f565b7f45704679a40d4b2ffe28aa7324f021775faaca4d40917fef2cdf38e53fd90a2483670de0b6b3a7640000846105179190611365565b6040516105259291906113a7565b60405180910390a16001905092915050565b600061054484848461082e565b7ff0723becaa2f43e5dbb43bcfbffa332a72630594b29ca3f3b7077a37292b306c848484604051610577939291906112ff565b60405180910390a1600190509392505050565b60008060008373ffffffffffffffffffffffffffffffffffffffff1673ffffffffffffffffffffffffffffffffffffffff168152602001908152602001600020549050919050565b6105da6109c8565b6105e46000610ad1565b565b6000600560009054906101000a900473ffffffffffffffffffffffffffffffffffffffff16905090565b60606004805461061f906112ce565b80601f016020809104026020016040519081016040528092919081815260200182805461064b906112ce565b80156106985780601f1061066d57610100808354040283529160200191610698565b820191906000526020600020905b81548152906001019060200180831161067b57829003601f168201915b5050505050905090565b6000806106ad610826565b90506106ba8185856108d4565b600191505092915050565b60006106d2848484610482565b507f21141798e799a89effd25c61078f7d75d4bdc3a58aa15da24f720f282983c826848484604051610706939291906112ff565b60405180910390a1600190509392505050565b6000600160008473ffffffffffffffffffffffffffffffffffffffff1673ffffffffffffffffffffffffffffffffffffffff16815260200190815260200160002060008373ffffffffffffffffffffffffffffffffffffffff1673ffffffffffffffffffffffffffffffffffffffff16815260200190815260200160002054905092915050565b6107a86109c8565b600073ffffffffffffffffffffffffffffffffffffffff168173ffffffffffffffffffffffffffffffffffffffff160361081a5760006040517f1e4fbdf70000000000000000000000000000000000000000000000000000000081526004016108119190611244565b60405180910390fd5b61082381610ad1565b50565b600033905090565b61083b8383836001610b97565b505050565b600061084c8484610719565b90507fffffffffffffffffffffffffffffffffffffffffffffffffffffffffffffffff81146108ce57818110156108be578281836040517ffb8f41b20000000000000000000000000000000000000000000000000000000081526004016108b5939291906113d0565b60405180910390fd5b6108cd84848484036000610b97565b5b50505050565b600073ffffffffffffffffffffffffffffffffffffffff168373ffffffffffffffffffffffffffffffffffffffff16036109465760006040517f96c6fd1e00000000000000000000000000000000000000000000000000000000815260040161093d9190611244565b60405180910390fd5b600073ffffffffffffffffffffffffffffffffffffffff168273ffffffffffffffffffffffffffffffffffffffff16036109b85760006040517fec442f050000000000000000000000000000000000000000000000000000000081526004016109af9190611244565b60405180910390fd5b6109c3838383610d6e565b505050565b6109d0610826565b73ffffffffffffffffffffffffffffffffffffffff166109ee6105e6565b73ffffffffffffffffffffffffffffffffffffffff1614610a4d57610a11610826565b6040517f118cdaa7000000000000000000000000000000000000000000000000000000008152600401610a449190611244565b60405180910390fd5b565b600073ffffffffffffffffffffffffffffffffffffffff168273ffffffffffffffffffffffffffffffffffffffff1603610ac15760006040517fec442f05000000000000000000000000000000000000000000000000000000008152600401610ab89190611244565b60405180910390fd5b610acd60008383610d6e565b5050565b6000600560009054906101000a900473ffffffffffffffffffffffffffffffffffffffff16905081600560006101000a81548173ffffffffffffffffffffffffffffffffffffffff021916908373ffffffffffffffffffffffffffffffffffffffff1602179055508173ffffffffffffffffffffffffffffffffffffffff168173ffffffffffffffffffffffffffffffffffffffff167f8be0079c531659141344cd1fd0a4f28419497f9722a3daafe3b4186f6b6457e060405160405180910390a35050565b600073ffffffffffffffffffffffffffffffffffffffff168473ffffffffffffffffffffffffffffffffffffffff1603610c095760006040517fe602df05000000000000000000000000000000000000000000000000000000008152600401610c009190611244565b60405180910390fd5b600073ffffffffffffffffffffffffffffffffffffffff168373ffffffffffffffffffffffffffffffffffffffff1603610c7b5760006040517f94280d62000000000000000000000000000000000000000000000000000000008152600401610c729190611244565b60405180910390fd5b81600160008673ffffffffffffffffffffffffffffffffffffffff1673ffffffffffffffffffffffffffffffffffffffff16815260200190815260200160002060008573ffffffffffffffffffffffffffffffffffffffff1673ffffffffffffffffffffffffffffffffffffffff168152602001908152602001600020819055508015610d68578273ffffffffffffffffffffffffffffffffffffffff168473ffffffffffffffffffffffffffffffffffffffff167f8c5be1e5ebec7d5bd14f71427d1e84f3dd0314c0f7b2291e5b200ac8c7c3b92584604051610d5f9190611163565b60405180910390a35b50505050565b600073ffffffffffffffffffffffffffffffffffffffff168373ffffffffffffffffffffffffffffffffffffffff1603610dc0578060026000828254610db49190611407565b92505081905550610e93565b60008060008573ffffffffffffffffffffffffffffffffffffffff1673ffffffffffffffffffffffffffffffffffffffff16815260200190815260200160002054905081811015610e4c578381836040517fe450d38c000000000000000000000000000000000000000000000000000000008152600401610e43939291906113d0565b60405180910390fd5b8181036000808673ffffffffffffffffffffffffffffffffffffffff1673ffffffffffffffffffffffffffffffffffffffff16815260200190815260200160002081905550505b600073ffffffffffffffffffffffffffffffffffffffff168273ffffffffffffffffffffffffffffffffffffffff1603610edc5780600260008282540392505081905550610f29565b806000808473ffffffffffffffffffffffffffffffffffffffff1673ffffffffffffffffffffffffffffffffffffffff168152602001908152602001600020600082825401925050819055505b8173ffffffffffffffffffffffffffffffffffffffff168373ffffffffffffffffffffffffffffffffffffffff167fddf252ad1be2c89b69c2b068fc378daa952ba7f163c4a11628f55a4df523b3ef83604051610f869190611163565b60405180910390a3505050565b600081519050919050565b600082825260208201905092915050565b60005b83811015610fcd578082015181840152602081019050610fb2565b60008484015250505050565b6000601f19601f8301169050919050565b6000610ff582610f93565b610fff8185610f9e565b935061100f818560208601610faf565b61101881610fd9565b840191505092915050565b6000602082019050818103600083015261103d8184610fea565b905092915050565b600080fd5b600073ffffffffffffffffffffffffffffffffffffffff82169050919050565b60006110758261104a565b9050919050565b6110858161106a565b811461109057600080fd5b50565b6000813590506110a28161107c565b92915050565b6000819050919050565b6110bb816110a8565b81146110c657600080fd5b50565b6000813590506110d8816110b2565b92915050565b600080604083850312156110f5576110f4611045565b5b600061110385828601611093565b9250506020611114858286016110c9565b9150509250929050565b60008115159050919050565b6111338161111e565b82525050565b600060208201905061114e600083018461112a565b92915050565b61115d816110a8565b82525050565b60006020820190506111786000830184611154565b92915050565b60008060006060848603121561119757611196611045565b5b60006111a586828701611093565b93505060206111b686828701611093565b92505060406111c7868287016110c9565b9150509250925092565b600060ff82169050919050565b6111e7816111d1565b82525050565b600060208201905061120260008301846111de565b92915050565b60006020828403121561121e5761121d611045565b5b600061122c84828501611093565b91505092915050565b61123e8161106a565b82525050565b60006020820190506112596000830184611235565b92915050565b6000806040838503121561127657611275611045565b5b600061128485828601611093565b925050602061129585828601611093565b9150509250929050565b7f4e487b7100000000000000000000000000000000000000000000000000000000600052602260045260246000fd5b600060028204905060018216806112e657607f821691505b6020821081036112f9576112f861129f565b5b50919050565b60006060820190506113146000830186611235565b6113216020830185611235565b61132e6040830184611154565b949350505050565b7f4e487b7100000000000000000000000000000000000000000000000000000000600052601160045260246000fd5b6000611370826110a8565b915061137b836110a8565b9250828202611389816110a8565b915082820484148315176113a05761139f611336565b5b5092915050565b60006040820190506113bc6000830185611235565b6113c96020830184611154565b9392505050565b60006060820190506113e56000830186611235565b6113f26020830185611154565b6113ff6040830184611154565b949350505050565b6000611412826110a8565b915061141d836110a8565b925082820190508082111561143557611434611336565b5b9291505056fea264697066735822122064694d24b901ba4a10e4b7a86d7c64b5a7ffbf86bf0168ec2617d0644c34245d64736f6c63430008180033",
  "linkReferences": {},
  "deployedLinkReferences": {}
}