{
  "_format": "hh-sol-artifact-1",
  "contractName": "Swap",
  "sourceName": "contracts/Swap.sol",
  "abi": [
    {
      "inputs": [
        {
          "internalType": "address",
          "name": "sim",
          "type": "address"
        },
        {
          "internalType": "address",
          "name": "wood",
          "type": "address"
        },
        {
          "internalType": "address",
          "name": "brick",
          "type": "address"
        }
      ],
      "stateMutability": "nonpayable",
      "type": "constructor"
    },
    {
      "inputs": [
        {
          "internalType": "uint256",
          "name": "amount",
          "type": "uint256"
        }
      ],
      "name": "BrickToSim",
      "outputs": [],
      "stateMutability": "nonpayable",
      "type": "function"
    },
    {
      "inputs": [
        {
          "internalType": "uint256",
          "name": "amount",
          "type": "uint256"
        }
      ],
      "name": "SimToBrick",
      "outputs": [],
      "stateMutability": "nonpayable",
      "type": "function"
    },
    {
      "inputs": [
        {
          "internalType": "uint256",
          "name": "amount",
          "type": "uint256"
        }
      ],
      "name": "SimToWood",
      "outputs": [],
      "stateMutability": "nonpayable",
      "type": "function"
    },
    {
      "inputs": [
        {
          "internalType": "uint256",
          "name": "amount",
          "type": "uint256"
        }
      ],
      "name": "WoodToSim",
      "outputs": [],
      "stateMutability": "nonpayable",
      "type": "function"
    }
  ],
  "bytecode": "0x608060405234801561001057600080fd5b50604051610d06380380610d068339818101604052810190610032919061015f565b826000806101000a81548173ffffffffffffffffffffffffffffffffffffffff021916908373ffffffffffffffffffffffffffffffffffffffff16021790555081600160006101000a81548173ffffffffffffffffffffffffffffffffffffffff021916908373ffffffffffffffffffffffffffffffffffffffff16021790555080600260006101000a81548173ffffffffffffffffffffffffffffffffffffffff021916908373ffffffffffffffffffffffffffffffffffffffff1602179055505050506101b2565b600080fd5b600073ffffffffffffffffffffffffffffffffffffffff82169050919050565b600061012c82610101565b9050919050565b61013c81610121565b811461014757600080fd5b50565b60008151905061015981610133565b92915050565b600080600060608486031215610178576101776100fc565b5b60006101868682870161014a565b93505060206101978682870161014a565b92505060406101a88682870161014a565b9150509250925092565b610b45806101c16000396000f3fe608060405234801561001057600080fd5b506004361061004c5760003560e01c80632f3db6be1461005157806341fa12321461006d578063a5e47b2514610089578063f636faa8146100a5575b600080fd5b61006b600480360381019061006691906108fc565b6100c1565b005b610087600480360381019061008291906108fc565b6102c0565b005b6100a3600480360381019061009e91906108fc565b6104bf565b005b6100bf60048036038101906100ba91906108fc565b6106c0565b005b600081116100ce57600080fd5b60008054906101000a900473ffffffffffffffffffffffffffffffffffffffff1673ffffffffffffffffffffffffffffffffffffffff16636e11fb1b3330846040518463ffffffff1660e01b815260040161012b93929190610979565b6020604051808303816000875af115801561014a573d6000803e3d6000fd5b505050506040513d601f19601f8201168201806040525081019061016e91906109e8565b5060008054906101000a900473ffffffffffffffffffffffffffffffffffffffff1673ffffffffffffffffffffffffffffffffffffffff1663c143a3723330846040518463ffffffff1660e01b81526004016101cc93929190610979565b6020604051808303816000875af11580156101eb573d6000803e3d6000fd5b505050506040513d601f19601f8201168201806040525081019061020f91906109e8565b50600160009054906101000a900473ffffffffffffffffffffffffffffffffffffffff1673ffffffffffffffffffffffffffffffffffffffff16631d72140a3360028461025c9190610a44565b6040518363ffffffff1660e01b8152600401610279929190610a86565b6020604051808303816000875af1158015610298573d6000803e3d6000fd5b505050506040513d601f19601f820116820180604052508101906102bc91906109e8565b5050565b600081116102cd57600080fd5b60008054906101000a900473ffffffffffffffffffffffffffffffffffffffff1673ffffffffffffffffffffffffffffffffffffffff16636e11fb1b3330846040518463ffffffff1660e01b815260040161032a93929190610979565b6020604051808303816000875af1158015610349573d6000803e3d6000fd5b505050506040513d601f19601f8201168201806040525081019061036d91906109e8565b5060008054906101000a900473ffffffffffffffffffffffffffffffffffffffff1673ffffffffffffffffffffffffffffffffffffffff1663c143a3723330846040518463ffffffff1660e01b81526004016103cb93929190610979565b6020604051808303816000875af11580156103ea573d6000803e3d6000fd5b505050506040513d601f19601f8201168201806040525081019061040e91906109e8565b50600260009054906101000a900473ffffffffffffffffffffffffffffffffffffffff1673ffffffffffffffffffffffffffffffffffffffff16631d72140a3360038461045b9190610a44565b6040518363ffffffff1660e01b8152600401610478929190610a86565b6020604051808303816000875af1158015610497573d6000803e3d6000fd5b505050506040513d601f19601f820116820180604052508101906104bb91906109e8565b5050565b600081116104cc57600080fd5b600260009054906101000a900473ffffffffffffffffffffffffffffffffffffffff1673ffffffffffffffffffffffffffffffffffffffff16636e11fb1b3330846040518463ffffffff1660e01b815260040161052b93929190610979565b6020604051808303816000875af115801561054a573d6000803e3d6000fd5b505050506040513d601f19601f8201168201806040525081019061056e91906109e8565b50600260009054906101000a900473ffffffffffffffffffffffffffffffffffffffff1673ffffffffffffffffffffffffffffffffffffffff1663c143a3723330846040518463ffffffff1660e01b81526004016105ce93929190610979565b6020604051808303816000875af11580156105ed573d6000803e3d6000fd5b505050506040513d601f19601f8201168201806040525081019061061191906109e8565b5060008054906101000a900473ffffffffffffffffffffffffffffffffffffffff1673ffffffffffffffffffffffffffffffffffffffff16631d72140a3360038461065c9190610ade565b6040518363ffffffff1660e01b8152600401610679929190610a86565b6020604051808303816000875af1158015610698573d6000803e3d6000fd5b505050506040513d601f19601f820116820180604052508101906106bc91906109e8565b5050565b600081116106cd57600080fd5b600160009054906101000a900473ffffffffffffffffffffffffffffffffffffffff1673ffffffffffffffffffffffffffffffffffffffff16636e11fb1b3330846040518463ffffffff1660e01b815260040161072c93929190610979565b6020604051808303816000875af115801561074b573d6000803e3d6000fd5b505050506040513d601f19601f8201168201806040525081019061076f91906109e8565b50600160009054906101000a900473ffffffffffffffffffffffffffffffffffffffff1673ffffffffffffffffffffffffffffffffffffffff1663c143a3723330846040518463ffffffff1660e01b81526004016107cf93929190610979565b6020604051808303816000875af11580156107ee573d6000803e3d6000fd5b505050506040513d601f19601f8201168201806040525081019061081291906109e8565b5060008054906101000a900473ffffffffffffffffffffffffffffffffffffffff1673ffffffffffffffffffffffffffffffffffffffff16631d72140a3360038461085d9190610ade565b6040518363ffffffff1660e01b815260040161087a929190610a86565b6020604051808303816000875af1158015610899573d6000803e3d6000fd5b505050506040513d601f19601f820116820180604052508101906108bd91906109e8565b5050565b600080fd5b6000819050919050565b6108d9816108c6565b81146108e457600080fd5b50565b6000813590506108f6816108d0565b92915050565b600060208284031215610912576109116108c1565b5b6000610920848285016108e7565b91505092915050565b600073ffffffffffffffffffffffffffffffffffffffff82169050919050565b600061095482610929565b9050919050565b61096481610949565b82525050565b610973816108c6565b82525050565b600060608201905061098e600083018661095b565b61099b602083018561095b565b6109a8604083018461096a565b949350505050565b60008115159050919050565b6109c5816109b0565b81146109d057600080fd5b50565b6000815190506109e2816109bc565b92915050565b6000602082840312156109fe576109fd6108c1565b5b6000610a0c848285016109d3565b91505092915050565b7f4e487b7100000000000000000000000000000000000000000000000000000000600052601160045260246000fd5b6000610a4f826108c6565b9150610a5a836108c6565b9250828202610a68816108c6565b91508282048414831517610a7f57610a7e610a15565b5b5092915050565b6000604082019050610a9b600083018561095b565b610aa8602083018461096a565b9392505050565b7f4e487b7100000000000000000000000000000000000000000000000000000000600052601260045260246000fd5b6000610ae9826108c6565b9150610af4836108c6565b925082610b0457610b03610aaf565b5b82820490509291505056fea26469706673582212208e14bd569e2ede22e516e3d51d3eeb19603113b2f217308bc36a410113a2f8e664736f6c63430008180033",
  "linkReferences": {},
  "deployedLinkReferences": {}
}